:100000000C945C000C9479000C9479000C947900A9
:100010000C9479000C9479000C9479000C9479007C
:100020000C9479000C9479000C9479000C940C02D7
:100030000C9479000C9479000C9479000C9479005C
:100040000C94C2010C9479000C9479000C94790002
:100050000C9479000C9479000C9479000C9479003C
:100060000C9479000C947900000000002400270013
:100070002A0000000000250028002B0004040404CE
:100080000404040402020202020203030303030342
:10009000010204081020408001020408102001021F
:1000A00004081020000000080002010000030407FB
:1000B000000000000000000011241FBECFEFD8E0B8
:1000C000DEBFCDBF21E0A6E1B1E001C01D92A135A8
:1000D000B207E1F711E0A0E0B1E0E0E8FAE002C029
:1000E00005900D92A631B107D9F70E94CD020C946C
:1000F0003E050C9400008F929F92AF92BF92EF92B8
:10010000FF921F93CF93DF93FC0192818181108135
:100110001C3008F04DC028E532E07901E91AF108F9
:1001200097FDF394EE0CFF1CEE0CFF1CC8E8D0E02A
:10013000C81BD10987FDD395CC0FDD1FCC0FDD1F68
:100140004E010D2E000CAA08BB08C7010F2C000C95
:10015000AA0BBB0B9C01AD01281939094A095B099F
:10016000AAE5B0E00E94020524EB30E040E050E058
:100170000E94E304820E931EA41EB51E8C169D06DB
:100180002CF0E401E814F9040CF4E7012297CC0FF9
:10019000DD1F2FB7F894812F90E0FC01EE0FFF1FB9
:1001A0008E0F9F1FFC01ED5DFE4FD283C1832FBFD9
:1001B000DF91CF911F91FF90EF90BF90AF909F90F4
:1001C0008F90089590E0FC01EC55FF4F3491FC01B5
:1001D000E057FF4F2491FC01E458FF4FE491EE23D8
:1001E00009F43BC0332339F1333091F038F4313026
:1001F000A9F0323001F584B58F7D12C0373091F00F
:100200003830A1F03430B9F4809180008F7D03C084
:10021000809180008F77809380000DC084B58F77A8
:1002200084BD09C08091B0008F7703C08091B00079
:100230008F7D8093B000F0E0EE0FFF1FEE58FF4F70
:10024000A591B4918FB7F894EC91611103C02095FA
:100250002E2301C02E2B2C938FBF0895CF93DF93B5
:10026000DC018C918C3008F06DC09B013327F901C3
:10027000E057FF4F8491F901E458FF4F2491222366
:1002800099F030E0220F331FF901E859FF4FC59173
:10029000D491F901EE58FF4F259134919FB7F8940E
:1002A000E881E82BE8839FBF8C91E82FF0E09F0165
:1002B000220F331FE20FF31FED5DFE4F6F7390812E
:1002C000907C692B608311961C92119712961C9258
:1002D00012976CE00E947A039CE0899FB001112480
:1002E00040E050E09A01260F371FF901EE0FFF1F83
:1002F0002E0F3F1FF901ED5DFE4F908196FD16C058
:100300004F5F5F4F4C30510569F781110FC010925C
:10031000800082E08093810010928500109284001A
:10032000B19A80916F00826080936F00EC91F0E051
:10033000CF01880F991FE80FF91FED5DFE4F8081F7
:10034000806480838C91DF91CF910895FC0190911E
:1003500017019C30A0F481E0890F809317019083EE
:10036000892F90E0FC01EE0FFF1F8E0F9F1FFC01F5
:10037000ED5DFE4F88EB9BE09283818308958FEFC4
:10038000808308951F920F920FB60F9211242F931E
:100390003F938F939F93AF93BF9380911F01909151
:1003A0002001A0912101B091220130911E0123E092
:1003B000230F2D3720F40196A11DB11D05C026E89D
:1003C000230F0296A11DB11D20931E0180931F01D2
:1003D00090932001A0932101B093220180911A01F2
:1003E00090911B01A0911C01B0911D010196A11DCE
:1003F000B11D80931A0190931B01A0931C01B0932F
:100400001D01BF91AF919F918F913F912F910F90BF
:100410000FBE0F901F9018951F920F920FB60F925C
:1004200011242F933F934F935F936F937F938F93F9
:100430009F93AF93BF93EF93FF938091160187FF34
:1004400005C010928500109284001BC020911601F7
:10045000022E000C330B8091170190E0281739070A
:1004600084F480911601082E000C990BFC01EE0F0C
:10047000FF1F8E0F9F1FFC01ED5DFE4F808186FDEB
:1004800015C0809116018F5F80931601209116018F
:10049000022E000C330B8091170190E028173907CA
:1004A000C4F4809116018C3064F113C08091160160
:1004B000082E000C990BFC01EE0FFF1F8E0F9F1FE3
:1004C000FC01ED5DFE4F808160E08F730E94E200D1
:1004D000D8CF8091840090918500049680349C4907
:1004E00018F480E49CE905C0809184009091850017
:1004F000049690938900809388008FEF8093160173
:100500003BC0209184003091850080911601082E17
:10051000000C990BFC01EE0FFF1F8E0F9F1FFC01BB
:10052000ED5DFE4F81819281820F931F9093890030
:100530008093880080911601082E000C990BFC0115
:10054000EE0FFF1F8E0F9F1FFC01ED5DFE4F8081A0
:1005500086FF12C080911601082E000C990BFC0139
:10056000EE0FFF1F8E0F9F1FFC01ED5DFE4F808180
:1005700061E08F730E94E200FF91EF91BF91AF9114
:100580009F918F917F916F915F914F913F912F91AB
:100590000F900FBE0F901F901895789484B58260CD
:1005A00084BD84B5816084BD85B5826085BD85B517
:1005B000816085BD80916E00816080936E00109295
:1005C0008100809181008260809381008091810010
:1005D00081608093810080918000816080938000A1
:1005E0008091B10084608093B1008091B0008160FF
:1005F0008093B00080917A00846080937A0080912B
:100600007A00826080937A0080917A008160809382
:100610007A0080917A00806880937A001092C100FD
:100620008CE590E00E948603EC010E94A6016E0119
:1006300083E0C80ED11CC6010E94A6017E0186E09F
:10064000E80EF11CC7010E94A6018E01075F1F4F33
:10065000C8010E94A60188E090E09D878C878BE00E
:1006600090E09F878E878AE090E0998B888B89E065
:1006700090E09B8B8A8B68E070E0CE010E942E0197
:100680006E857F85C6010E942E0168897989C70120
:100690000E942E016A897B89C8010E942E01CE0129
:1006A0000E947B00C6010E947B00C7010E947B0064
:1006B000C8010E947B008AE091E00E94B304D093BD
:1006C0001901C093180180E090E0AEE3B3E48C8B95
:1006D0009D8BAE8BBF8B80E090E0A4EAB2E4888F64
:1006E000998FAA8FBB8FC0E0D0E02097F1F30E94D2
:1006F0000000FBCF991B79E004C0991F961708F002
:10070000961B881F7A95C9F780950895CF93DF933C
:100710008230910510F482E090E0E0914901F0917F
:100720004A0120E030E0C0E0D0E0309711F1408194
:10073000518148175907C0F04817590761F4828161
:100740009381209719F09B838A832BC090934A0151
:100750008093490126C02115310519F0421753072E
:1007600018F49A01BE01DF01EF010280F381E02D50
:10077000DCCF2115310509F1281B390B2430310557
:1007800090F412968D919C9113976115710521F04B
:10079000FB019383828304C090934A0180934901B3
:1007A000FD01329644C0FD01E20FF31F8193919346
:1007B000225031092D933C933AC02091470130914A
:1007C0004801232B41F42091020130910301309321
:1007D000480120934701209100013091010121152A
:1007E000310541F42DB73EB7409104015091050108
:1007F000241B350BE0914701F0914801E217F30704
:10080000A0F42E1B3F0B2817390778F0AC014E5F80
:100810005F4F2417350748F04E0F5F1F5093480174
:10082000409347018193919302C0E0E0F0E0CF0153
:10083000DF91CF9108950F931F93CF93DF9300978C
:1008400009F48CC0FC013297138212820091490195
:1008500010914A010115110581F420813181820F27
:10086000931F20914701309148012817390779F5E6
:10087000F0934801E093470171C0D80140E050E097
:10088000AE17BF0750F412962D913C911397AD010E
:100890002115310509F1D901F3CF9D01DA01338327
:1008A000228360817181860F971F8217930769F4F5
:1008B000EC0128813981260F371F2E5F3F4F31838E
:1008C00020838A819B8193838283452B29F4F09333
:1008D0004A01E093490142C01396FC93EE931297AC
:1008E000ED01499159919E01240F351FE217F3073D
:1008F00071F480819181840F951F029611969C93CB
:100900008E938281938113969C938E931297E0E04D
:10091000F0E0D80112968D919C911397009719F0F1
:10092000F8018C01F6CF8D919C9198012E5F3F4F7D
:10093000820F931F209147013091480128173907F2
:1009400069F4309729F410924A011092490102C0CB
:10095000138212821093480100934701DF91CF91D7
:100960001F910F9108950F931F93CF93DF93E09101
:100970004D01F0914E01238121FF1BC08C01D0E07D
:10098000C0E0F80181918F0160914D0170914E019D
:10099000DB011896ED91FC911997882331F00995A8
:1009A000892B79F3DFEFCFEFECCF8AE00995892B24
:1009B00019F08FEF9FEF02C08D2F9C2FDF91CF9109
:1009C0001F910F910895052E97FB1EF400940E942D
:1009D000FA0457FD07D00E940D0507FC03D04EF422
:1009E0000C94FA0450954095309521953F4F4F4F08
:1009F0005F4F089590958095709561957F4F8F4FCB
:100A00009F4F08950E942F05A59F900DB49F900DB4
:100A1000A49F800D911D11240895A1E21A2EAA1BF6
:100A2000BB1BFD010DC0AA1FBB1FEE1FFF1FA2179E
:100A3000B307E407F50720F0A21BB30BE40BF50B9B
:100A4000661F771F881F991F1A9469F76095709524
:100A5000809590959B01AC01BD01CF010895A29FA7
:100A6000B001B39FC001A39F700D811D1124911D82
:100A7000B29F700D811D1124911D0895F894FFCF30
:100A800000005101800001000000696E697420734C
:060A90006572766F0000A4
:00000001FF
